{
  "transactions": [
    {
      "hash": "0xccce961385e8546bb5804e64d770080bef182af32e99e978c402918e8dce3f45",
      "transactionType": "CREATE",
      "contractName": "MockUSDC",
      "contractAddress": "0xf0b5e0eeadfe33b98299fdaf0e92a544d1b6c152",
      "function": null,
      "arguments": null,
      "transaction": {
        "from": "0x22befd3a94aada878e7b754a8903db25f42f840f",
        "to": null,
        "gas": "0x98e82",
        "value": "0x0",
        "input": "0x60c060405260086080908152672aa9a21021b7b4b760c11b60a0525f906100269082610106565b506040805180820190915260048152635553444360e01b602082015260019061004f9082610106565b506002805460ff19166006179055348015610068575f80fd5b506101c5565b634e487b7160e01b5f52604160045260245ffd5b600181811c9082168061009657607f821691505b6020821081036100b457634e487b7160e01b5f52602260045260245ffd5b50919050565b601f82111561010157805f5260205f20601f840160051c810160208510156100df5750805b601f840160051c820191505b818110156100fe575f81556001016100eb565b50505b505050565b81516001600160401b0381111561011f5761011f61006e565b6101338161012d8454610082565b846100ba565b602080601f831160018114610166575f841561014f5750858301515b5f19600386901b1c1916600185901b1785556101bd565b5f85815260208120601f198616915b8281101561019457888601518255948401946001909101908401610175565b50858210156101b157878501515f19600388901b60f8161c191681555b505060018460011b0185555b505050505050565b610667806101d25f395ff3fe608060405234801561000f575f80fd5b506004361061009b575f3560e01c806340c10f191161006357806340c10f191461012957806370a082311461013e57806395d89b411461015d578063a9059cbb14610165578063dd62ed3e14610178575f80fd5b806306fdde031461009f578063095ea7b3146100bd57806318160ddd146100e057806323b872dd146100f7578063313ce5671461010a575b5f80fd5b6100a76101a2565b6040516100b491906104a6565b60405180910390f35b6100d06100cb36600461050d565b61022d565b60405190151581526020016100b4565b6100e960035481565b6040519081526020016100b4565b6100d0610105366004610535565b610299565b6002546101179060ff1681565b60405160ff90911681526020016100b4565b61013c61013736600461050d565b610383565b005b6100e961014c36600461056e565b60046020525f908152604090205481565b6100a761040b565b6100d061017336600461050d565b610418565b6100e961018636600461058e565b600560209081525f928352604080842090915290825290205481565b5f80546101ae906105bf565b80601f01602080910402602001604051908101604052809291908181526020018280546101da906105bf565b80156102255780601f106101fc57610100808354040283529160200191610225565b820191905f5260205f20905b81548152906001019060200180831161020857829003601f168201915b505050505081565b335f8181526005602090815260408083206001600160a01b038716808552925280832085905551919290917f8c5be1e5ebec7d5bd14f71427d1e84f3dd0314c0f7b2291e5b200ac8c7c3b925906102879086815260200190565b60405180910390a35060015b92915050565b6001600160a01b0383165f9081526005602090815260408083203384529091528120805483919083906102cd90849061060b565b90915550506001600160a01b0384165f90815260046020526040812080548492906102f990849061060b565b90915550506001600160a01b0383165f908152600460205260408120805484929061032590849061061e565b92505081905550826001600160a01b0316846001600160a01b03167fddf252ad1be2c89b69c2b068fc378daa952ba7f163c4a11628f55a4df523b3ef8460405161037191815260200190565b60405180910390a35060019392505050565b6001600160a01b0382165f90815260046020526040812080548392906103aa90849061061e565b925050819055508060035f8282546103c2919061061e565b90915550506040518181526001600160a01b038316905f907fddf252ad1be2c89b69c2b068fc378daa952ba7f163c4a11628f55a4df523b3ef9060200160405180910390a35050565b600180546101ae906105bf565b335f9081526004602052604081208054839190839061043890849061060b565b90915550506001600160a01b0383165f908152600460205260408120805484929061046490849061061e565b90915550506040518281526001600160a01b0384169033907fddf252ad1be2c89b69c2b068fc378daa952ba7f163c4a11628f55a4df523b3ef90602001610287565b5f602080835283518060208501525f5b818110156104d2578581018301518582016040015282016104b6565b505f604082860101526040601f19601f8301168501019250505092915050565b80356001600160a01b0381168114610508575f80fd5b919050565b5f806040838503121561051e575f80fd5b610527836104f2565b946020939093013593505050565b5f805f60608486031215610547575f80fd5b610550846104f2565b925061055e602085016104f2565b9150604084013590509250925092565b5f6020828403121561057e575f80fd5b610587826104f2565b9392505050565b5f806040838503121561059f575f80fd5b6105a8836104f2565b91506105b6602084016104f2565b90509250929050565b600181811c908216806105d357607f821691505b6020821081036105f157634e487b7160e01b5f52602260045260245ffd5b50919050565b634e487b7160e01b5f52601160045260245ffd5b81810381811115610293576102936105f7565b80820180821115610293576102936105f756fea2646970667358221220569246978ad0f3005757e96041c10a80981b05ae83e4789b1052deac23dccd7364736f6c63430008180033",
        "nonce": "0x5",
        "chainId": "0x14a34"
      },
      "additionalContracts": [],
      "isFixedGasLimit": false
    },
    {
      "hash": "0xe046622b9b1ff84f39ae955c58c0b11e02d4367f90ce913a6ee1e8fcca8a3106",
      "transactionType": "CALL",
      "contractName": "MockUSDC",
      "contractAddress": "0xf0b5e0eeadfe33b98299fdaf0e92a544d1b6c152",
      "function": "mint(address,uint256)",
      "arguments": [
        "0x22BEfd3A94aAdA878e7b754A8903dB25f42F840F",
        "1000000000"
      ],
      "transaction": {
        "from": "0x22befd3a94aada878e7b754a8903db25f42f840f",
        "to": "0xf0b5e0eeadfe33b98299fdaf0e92a544d1b6c152",
        "gas": "0x185e7",
        "value": "0x0",
        "input": "0x40c10f1900000000000000000000000022befd3a94aada878e7b754a8903db25f42f840f000000000000000000000000000000000000000000000000000000003b9aca00",
        "nonce": "0x6",
        "chainId": "0x14a34"
      },
      "additionalContracts": [],
      "isFixedGasLimit": false
    },
    {
      "hash": "0x025ed9e0ccbce9323c25770f8f33000f069e9e01d8bd374216ea1f32aa40c2c5",
      "transactionType": "CREATE",
      "contractName": "DonationEscrow",
      "contractAddress": "0xdd86cc39e144d07259ded89236c44d5b40c02bda",
      "function": null,
      "arguments": [
        "0x22BEfd3A94aAdA878e7b754A8903dB25f42F840F",
        "0xf0B5E0eEadFe33b98299Fdaf0E92a544D1b6C152",
        "0xCaC16f5A3FBC3c4b1306B05302488EaEA59250e0",
        "0xFd914AA36aEdc1C70656261450b4c169980a05F4"
      ],
      "transaction": {
        "from": "0x22befd3a94aada878e7b754a8903db25f42f840f",
        "to": null,
        "gas": "0x198870",
        "value": "0x0",
        "input": "0x60e060405234801562000010575f80fd5b50604051620017623803806200176283398101604081905262000033916200013a565b836001600160a01b0381166200006257604051631e4fbdf760e01b81525f600482015260240160405180910390fd5b6200006d81620000b1565b5060017f9b779b17422d0df92223018b32b4d1fa46e071723d6817e2486d003becc55f00556001600160a01b0392831660805290821660a0521660c0525062000194565b600180546001600160a01b0319169055620000cc81620000cf565b50565b5f80546001600160a01b038381166001600160a01b0319831681178455604051919092169283917f8be0079c531659141344cd1fd0a4f28419497f9722a3daafe3b4186f6b6457e09190a35050565b80516001600160a01b038116811462000135575f80fd5b919050565b5f805f80608085870312156200014e575f80fd5b62000159856200011e565b935062000169602086016200011e565b925062000179604086016200011e565b915062000189606086016200011e565b905092959194509250565b60805160a05160c0516115566200020c5f395f818161011a0152610a5501525f81816102770152818161038401528181610714015281816107b30152818161098301528181610b160152610cd501525f81816101a001528181610481015281816104bc015281816108e20152610b8f01526115565ff3fe608060405234801561000f575f80fd5b5060043610610111575f3560e01c806379ba50971161009e578063c959734c1161006e578063c959734c146102a9578063e30c3978146102c9578063e55a62a8146102da578063ef07a81f146102e2578063f2fde38b14610331575f80fd5b806379ba5097146102575780637fb6e4391461025f57806380b6251a146102725780638da5cb5b14610299575f80fd5b8063550b521c116100e4578063550b521c146101c25780635b7baf64146101ec5780636149243a146101ff578063715018a6146102125780637824c2381461021a575f80fd5b8063012beac9146101155780630cdd53f6146101595780632625dcc11461016e5780633e413bee1461019b575b5f80fd5b61013c7f000000000000000000000000000000000000000000000000000000000000000081565b6040516001600160a01b0390911681526020015b60405180910390f35b61016c610167366004611106565b610344565b005b61018d61017c366004611126565b60026020525f908152604090205481565b604051908152602001610150565b61013c7f000000000000000000000000000000000000000000000000000000000000000081565b61018d6101d0366004611151565b600360209081525f928352604080842090915290825290205481565b61016c6101fa366004611126565b610793565b61016c61020d36600461117b565b61095b565b61016c610c1d565b61022d610228366004611126565b610c30565b604080516001600160a01b0390951685526020850193909352918301526060820152608001610150565b61016c610c72565b61018d61026d366004611126565b610cb3565b61013c7f000000000000000000000000000000000000000000000000000000000000000081565b5f546001600160a01b031661013c565b6102bc6102b7366004611126565b610d7d565b60405161015091906111f0565b6001546001600160a01b031661013c565b60055461018d565b6102f56102f0366004611126565b610de6565b604051610150919081516001600160a01b0316815260208083015190820152604080830151908201526060918201519181019190915260800190565b61016c61033f36600461123c565b610e78565b61034c610ee8565b805f0361036c57604051631f2a200560e01b815260040160405180910390fd5b6040516332df0f6b60e01b8152600481018390525f907f00000000000000000000000000000000000000000000000000000000000000006001600160a01b0316906332df0f6b906024015f60405180830381865afa1580156103d0573d5f803e3d5ffd5b505050506040513d5f823e601f3d908101601f191682016040526103f7919081019061136b565b90505f8160800151600381111561041057610410611444565b146104365760405163a06fdb9960e01b8152600481018490526024015b60405180910390fd5b5f838152600260205260408120546060830151610453919061146c565b90505f8184116104635783610465565b815b90505f610472828661146c565b90506104a96001600160a01b037f000000000000000000000000000000000000000000000000000000000000000016333088610f03565b801561051b576104e36001600160a01b037f0000000000000000000000000000000000000000000000000000000000000000163383610f3f565b604051818152869033907f50bfa38eb925cc440445b77a29d3b42a883f23c2b749c7aaa93a1cc66fbd89f09060200160405180910390a35b335f9081526003602090815260408083208984529091528120549003610569575f8681526004602090815260408220805460018101825590835291200180546001600160a01b031916331790555b335f90815260036020908152604080832089845290915281208054849290610592908490611485565b90915550505f86815260026020526040812080548492906105b4908490611485565b9091555050600580546040805160808101825233808252602082018b815282840188815242606085019081526001870188555f979097529251600486027f036b6384b5eca791c62761152d0c79bb0604c104a5fb6f4eb0703f3154bb3db0810180546001600160a01b03939093166001600160a01b03199093169290921790915590517f036b6384b5eca791c62761152d0c79bb0604c104a5fb6f4eb0703f3154bb3db182015591517f036b6384b5eca791c62761152d0c79bb0604c104a5fb6f4eb0703f3154bb3db283015593517f036b6384b5eca791c62761152d0c79bb0604c104a5fb6f4eb0703f3154bb3db390910155519091889183907f27e413b8931dc4cb7edc879292ebc482a3047336d03423ea91addae7a2cf850a906106de9088815260200190565b60405180910390a460608501515f8881526002602052604090205410610774576040516362b3375960e11b8152600481018890527f00000000000000000000000000000000000000000000000000000000000000006001600160a01b03169063c5666eb2906024015f604051808303815f87803b15801561075d575f80fd5b505af115801561076f573d5f803e3d5ffd5b505050505b505050505061078f60015f8051602061150183398151915255565b5050565b61079b610ee8565b6040516332df0f6b60e01b8152600481018290525f907f00000000000000000000000000000000000000000000000000000000000000006001600160a01b0316906332df0f6b906024015f60405180830381865afa1580156107ff573d5f803e3d5ffd5b505050506040513d5f823e601f3d908101601f19168201604052610826919081019061136b565b905060038160800151600381111561084057610840611444565b1461086157604051634b4b6fcd60e01b81526004810183905260240161042d565b335f9081526003602090815260408083208584529091528120549081900361089c5760405163f76aef6560e01b815260040160405180910390fd5b335f90815260036020908152604080832086845282528083208390556002909152812080548392906108cf90849061146c565b9091555061090990506001600160a01b037f0000000000000000000000000000000000000000000000000000000000000000163383610f3f565b604051818152839033907f2dc8e290002f06fc0085bbca9dfb8b415cf4d1178950c72ff9ee8f4d8878ee669060200160405180910390a3505061095860015f8051602061150183398151915255565b50565b610963610f74565b61096b610ee8565b6040516332df0f6b60e01b8152600481018490525f907f00000000000000000000000000000000000000000000000000000000000000006001600160a01b0316906332df0f6b906024015f60405180830381865afa1580156109cf573d5f803e3d5ffd5b505050506040513d5f823e601f3d908101601f191682016040526109f6919081019061136b565b9050600181608001516003811115610a1057610a10611444565b14610a3157604051630777d7ef60e41b81526004810185905260240161042d565b602081015160405163353f20fd60e01b81526001600160a01b0391821660048201527f00000000000000000000000000000000000000000000000000000000000000009091169063353f20fd90602401602060405180830381865afa158015610a9c573d5f803e3d5ffd5b505050506040513d601f19601f82011682018060405250810190610ac09190611498565b610aee576020810151604051635c5c2bd760e01b81526001600160a01b03909116600482015260240161042d565b5f84815260026020526040808220805492905551634f4eeabd60e11b81526001600160a01b037f00000000000000000000000000000000000000000000000000000000000000001690639e9dd57a90610b4f908890889088906004016114b7565b5f604051808303815f87803b158015610b66575f80fd5b505af1158015610b78573d5f803e3d5ffd5b5050506020830151610bb691506001600160a01b037f0000000000000000000000000000000000000000000000000000000000000000169083610f3f565b81602001516001600160a01b0316857fbb460b4baf648b0ef74020dbb07689801e8808942675518ac156979d3adcb0dd838787604051610bf8939291906114b7565b60405180910390a35050610c1860015f8051602061150183398151915255565b505050565b610c25610f74565b610c2e5f610fa0565b565b60058181548110610c3f575f80fd5b5f91825260209091206004909102018054600182015460028301546003909301546001600160a01b039092169350919084565b60015433906001600160a01b03168114610caa5760405163118cdaa760e01b81526001600160a01b038216600482015260240161042d565b61095881610fa0565b6040516332df0f6b60e01b8152600481018290525f9081906001600160a01b037f000000000000000000000000000000000000000000000000000000000000000016906332df0f6b906024015f60405180830381865afa158015610d19573d5f803e3d5ffd5b505050506040513d5f823e601f3d908101601f19168201604052610d40919081019061136b565b5f84815260026020526040902054606082015191925090811015610d7357808260600151610d6e919061146c565b610d75565b5f5b949350505050565b5f81815260046020908152604091829020805483518184028101840190945280845260609392830182828015610dda57602002820191905f5260205f20905b81546001600160a01b03168152600190910190602001808311610dbc575b50505050509050919050565b610e1660405180608001604052805f6001600160a01b031681526020015f81526020015f81526020015f81525090565b60058281548110610e2957610e296114ec565b5f91825260209182902060408051608081018252600490930290910180546001600160a01b03168352600181015493830193909352600283015490820152600390910154606082015292915050565b610e80610f74565b600180546001600160a01b0383166001600160a01b03199091168117909155610eb05f546001600160a01b031690565b6001600160a01b03167f38d16b8cac22d99fc7c124b9cd0de2d3fa1faef420bfe791d8c362d765e2270060405160405180910390a350565b610ef0610fb9565b60025f8051602061150183398151915255565b610f11848484846001610fe8565b610f3957604051635274afe760e01b81526001600160a01b038516600482015260240161042d565b50505050565b610f4c8383836001611055565b610c1857604051635274afe760e01b81526001600160a01b038416600482015260240161042d565b5f546001600160a01b03163314610c2e5760405163118cdaa760e01b815233600482015260240161042d565b600180546001600160a01b0319169055610958816110b7565b5f8051602061150183398151915254600203610c2e57604051633ee5aeb560e01b815260040160405180910390fd5b6040516323b872dd60e01b5f8181526001600160a01b038781166004528616602452604485905291602083606481808c5af1925060015f51148316611044578383151615611038573d5f823e3d81fd5b5f883b113d1516831692505b604052505f60605295945050505050565b60405163a9059cbb60e01b5f8181526001600160a01b038616600452602485905291602083604481808b5af1925060015f511483166110ab57838315161561109f573d5f823e3d81fd5b5f873b113d1516831692505b60405250949350505050565b5f80546001600160a01b038381166001600160a01b0319831681178455604051919092169283917f8be0079c531659141344cd1fd0a4f28419497f9722a3daafe3b4186f6b6457e09190a35050565b5f8060408385031215611117575f80fd5b50508035926020909101359150565b5f60208284031215611136575f80fd5b5035919050565b6001600160a01b0381168114610958575f80fd5b5f8060408385031215611162575f80fd5b823561116d8161113d565b946020939093013593505050565b5f805f6040848603121561118d575f80fd5b83359250602084013567ffffffffffffffff808211156111ab575f80fd5b818601915086601f8301126111be575f80fd5b8135818111156111cc575f80fd5b8760208285010111156111dd575f80fd5b6020830194508093505050509250925092565b602080825282518282018190525f9190848201906040850190845b818110156112305783516001600160a01b03168352928401929184019160010161120b565b50909695505050505050565b5f6020828403121561124c575f80fd5b81356112578161113d565b9392505050565b634e487b7160e01b5f52604160045260245ffd5b604051610100810167ffffffffffffffff811182821017156112965761129661125e565b60405290565b604051601f8201601f1916810167ffffffffffffffff811182821017156112c5576112c561125e565b604052919050565b80516112d88161113d565b919050565b5f82601f8301126112ec575f80fd5b815167ffffffffffffffff8111156113065761130661125e565b602061131a601f8301601f1916820161129c565b828152858284870101111561132d575f80fd5b5f5b8381101561134a57858101830151828201840152820161132f565b505f928101909101919091529392505050565b8051600481106112d8575f80fd5b5f6020828403121561137b575f80fd5b815167ffffffffffffffff80821115611392575f80fd5b9083019061010082860312156113a6575f80fd5b6113ae611272565b825181526113be602084016112cd565b60208201526040830151828111156113d4575f80fd5b6113e0878286016112dd565b604083015250606083015160608201526113fc6080840161135d565b608082015260a083015182811115611412575f80fd5b61141e878286016112dd565b60a08301525060c083015160c082015260e083015160e082015280935050505092915050565b634e487b7160e01b5f52602160045260245ffd5b634e487b7160e01b5f52601160045260245ffd5b8181038181111561147f5761147f611458565b92915050565b8082018082111561147f5761147f611458565b5f602082840312156114a8575f80fd5b81518015158114611257575f80fd5b83815260406020820152816040820152818360608301375f818301606090810191909152601f909201601f1916010192915050565b634e487b7160e01b5f52603260045260245ffdfe9b779b17422d0df92223018b32b4d1fa46e071723d6817e2486d003becc55f00a264697066735822122034bf0f722fb81c510ab4072319b5606b5f44dda28e884a5cd2f157586f82ca3464736f6c6343000818003300000000000000000000000022befd3a94aada878e7b754a8903db25f42f840f000000000000000000000000f0b5e0eeadfe33b98299fdaf0e92a544d1b6c152000000000000000000000000cac16f5a3fbc3c4b1306b05302488eaea59250e0000000000000000000000000fd914aa36aedc1c70656261450b4c169980a05f4",
        "nonce": "0x7",
        "chainId": "0x14a34"
      },
      "additionalContracts": [],
      "isFixedGasLimit": false
    },
    {
      "hash": "0x5582e580b3e55bce2aa976199c495591e7a59429ebef85a546dd2f795e96aee7",
      "transactionType": "CALL",
      "contractName": "VendorRegistry",
      "contractAddress": "0xfd914aa36aedc1c70656261450b4c169980a05f4",
      "function": "addVendor(address,string,string)",
      "arguments": [
        "0x22BEfd3A94aAdA878e7b754A8903dB25f42F840F",
        "Test Grocery Store",
        "QmVendorMetadataHash"
      ],
      "transaction": {
        "from": "0x22befd3a94aada878e7b754a8903db25f42f840f",
        "to": "0xfd914aa36aedc1c70656261450b4c169980a05f4",
        "gas": "0x3a3f1",
        "value": "0x0",
        "input": "0xb32caa1d00000000000000000000000022befd3a94aada878e7b754a8903db25f42f840f000000000000000000000000000000000000000000000000000000000000006000000000000000000000000000000000000000000000000000000000000000a00000000000000000000000000000000000000000000000000000000000000012546573742047726f636572792053746f726500000000000000000000000000000000000000000000000000000000000000000000000000000000000000000014516d56656e646f724d6574616461746148617368000000000000000000000000",
        "nonce": "0x8",
        "chainId": "0x14a34"
      },
      "additionalContracts": [],
      "isFixedGasLimit": false
    },
    {
      "hash": "0x1d08ae816513fb3a8b7413e07735c9ad3c5c5d38b4e9b22b3ee05b4706027794",
      "transactionType": "CALL",
      "contractName": "RecipientRegistry",
      "contractAddress": "0x1e0e0c4dbbef0c6d60ddaba643d5844589cc952a",
      "function": "addRecipient(string)",
      "arguments": [
        "QmRecipientProfileHash"
      ],
      "transaction": {
        "from": "0x22befd3a94aada878e7b754a8903db25f42f840f",
        "to": "0x1e0e0c4dbbef0c6d60ddaba643d5844589cc952a",
        "gas": "0x2e815",
        "value": "0x0",
        "input": "0xd0bdce7200000000000000000000000000000000000000000000000000000000000000200000000000000000000000000000000000000000000000000000000000000016516d526563697069656e7450726f66696c654861736800000000000000000000",
        "nonce": "0x9",
        "chainId": "0x14a34"
      },
      "additionalContracts": [],
      "isFixedGasLimit": false
    },
    {
      "hash": "0x5ef6609c65ae0af75cc66c7243cc5b9a7215c0cddfadccb7827df2fabd80f1a9",
      "transactionType": "CALL",
      "contractName": null,
      "contractAddress": "0xcac16f5a3fbc3c4b1306b05302488eaea59250e0",
      "function": "createNeed(uint256,address,string,uint256)",
      "arguments": [
        "0",
        "0x22BEfd3A94aAdA878e7b754A8903dB25f42F840F",
        "QmNeedDescriptionHash",
        "40000000"
      ],
      "transaction": {
        "from": "0x22befd3a94aada878e7b754a8903db25f42f840f",
        "to": "0xcac16f5a3fbc3c4b1306b05302488eaea59250e0",
        "gas": "0x42bd1",
        "value": "0x0",
        "input": "0x763c7ec6000000000000000000000000000000000000000000000000000000000000000000000000000000000000000022befd3a94aada878e7b754a8903db25f42f840f00000000000000000000000000000000000000000000000000000000000000800000000000000000000000000000000000000000000000000000000002625a000000000000000000000000000000000000000000000000000000000000000015516d4e6565644465736372697074696f6e486173680000000000000000000000",
        "nonce": "0xa",
        "chainId": "0x14a34"
      },
      "additionalContracts": [],
      "isFixedGasLimit": false
    }
  ],
  "receipts": [
    {
      "type": "0x2",
      "status": "0x1",
      "cumulativeGasUsed": "0x8d11d",
      "logs": [],
      "logsBloom": "0x00000000000000000000000000000000000000000000000000000000000000000000000000000000000000000000000000000000000000000000000000000000000000000000000000000000000000000000000000000000000000000000000000000000000000000000000000000000000000000000000000000000000000000000000000000000000000000000000000000000000000000000000000000000000000000000000000000000000000000000000000000000000000000000000000000000000000000000000000000000000000000000000000000000000000000000000000000000000000000000000000000000000000000000000000000000",
      "transactionHash": "0xccce961385e8546bb5804e64d770080bef182af32e99e978c402918e8dce3f45",
      "transactionIndex": "0x2",
      "blockHash": "0x0000000000000000000000000000000000000000000000000000000000000000",
      "blockNumber": "0x27e262e",
      "gasUsed": "0x759ee",
      "effectiveGasPrice": "0x5b8d80",
      "blobGasUsed": "0x95b82",
      "from": "0x22befd3a94aada878e7b754a8903db25f42f840f",
      "to": null,
      "contractAddress": "0xf0b5e0eeadfe33b98299fdaf0e92a544d1b6c152",
      "l1GasPrice": "0x397abe16",
      "l1GasUsed": "0x55f4",
      "l1Fee": "0x14a591d6e",
      "l1BaseFeeScalar": "0x44d",
      "l1BlobBaseFee": "0x378cd10",
      "l1BlobBaseFeeScalar": "0xa118b",
      "daFootprintGasScalar": "0x1be"
    },
    {
      "type": "0x2",
      "status": "0x1",
      "cumulativeGasUsed": "0x9dbb7",
      "logs": [
        {
          "address": "0xf0b5e0eeadfe33b98299fdaf0e92a544d1b6c152",
          "topics": [
            "0xddf252ad1be2c89b69c2b068fc378daa952ba7f163c4a11628f55a4df523b3ef",
            "0x0000000000000000000000000000000000000000000000000000000000000000",
            "0x00000000000000000000000022befd3a94aada878e7b754a8903db25f42f840f"
          ],
          "data": "0x000000000000000000000000000000000000000000000000000000003b9aca00",
          "blockHash": "0x0000000000000000000000000000000000000000000000000000000000000000",
          "blockNumber": "0x27e262e",
          "blockTimestamp": "0x6a0fab3c",
          "transactionHash": "0xe046622b9b1ff84f39ae955c58c0b11e02d4367f90ce913a6ee1e8fcca8a3106",
          "transactionIndex": "0x3",
          "logIndex": "0x1",
          "removed": false
        }
      ],
      "logsBloom": "0x00000000000000000000000000000000000000000000000000000000000000000000000000000000000000000000000400000000000000000000000000000000000000000000000000000008000000000000000000000000000000000000000000000000020000000000000000000800000000000000000000000010000000000000000000000000000000000000000000000000000000000000000000000000000000000000000000000000000000000008000000000000000800000000000000000002000000000000000000020000000000000000000000000000000820000000000000000100000000000000000000000000000000000000000000000000",
      "transactionHash": "0xe046622b9b1ff84f39ae955c58c0b11e02d4367f90ce913a6ee1e8fcca8a3106",
      "transactionIndex": "0x3",
      "blockHash": "0x0000000000000000000000000000000000000000000000000000000000000000",
      "blockNumber": "0x27e262e",
      "gasUsed": "0x10a9a",
      "effectiveGasPrice": "0x5b8d80",
      "blobGasUsed": "0xae38",
      "from": "0x22befd3a94aada878e7b754a8903db25f42f840f",
      "to": "0xf0b5e0eeadfe33b98299fdaf0e92a544d1b6c152",
      "contractAddress": null,
      "l1GasPrice": "0x397abe16",
      "l1GasUsed": "0x640",
      "l1Fee": "0x14a591d6e",
      "l1BaseFeeScalar": "0x44d",
      "l1BlobBaseFee": "0x378cd10",
      "l1BlobBaseFeeScalar": "0xa118b",
      "daFootprintGasScalar": "0x1be"
    },
    {
      "type": "0x2",
      "status": "0x1",
      "cumulativeGasUsed": "0x1d7fbf",
      "logs": [
        {
          "address": "0xdd86cc39e144d07259ded89236c44d5b40c02bda",
          "topics": [
            "0x8be0079c531659141344cd1fd0a4f28419497f9722a3daafe3b4186f6b6457e0",
            "0x0000000000000000000000000000000000000000000000000000000000000000",
            "0x00000000000000000000000022befd3a94aada878e7b754a8903db25f42f840f"
          ],
          "data": "0x",
          "blockHash": "0x0000000000000000000000000000000000000000000000000000000000000000",
          "blockNumber": "0x27e262e",
          "blockTimestamp": "0x6a0fab3c",
          "transactionHash": "0x1d08ae816513fb3a8b7413e07735c9ad3c5c5d38b4e9b22b3ee05b4706027794",
          "transactionIndex": "0x4",
          "logIndex": "0x2",
          "removed": false
        }
      ],
      "logsBloom": "0x00000000000000000000000000000000000000000000000000800000000000000000000000000000000000000000000000000000000000000100000000000000000000000000000000000000000000000001000000000000000000000000000000000000020000000000000000000800000000000000000000000000000000400000000000000000000000004008000000000000000000000000000000000000000000000000000000000000000000000008000000000000000800000000000000000000000000000000000000020000000000000000000000000000000020000000000000000000000000000000000000000000000000000000000000000000",
      "transactionHash": "0x1d08ae816513fb3a8b7413e07735c9ad3c5c5d38b4e9b22b3ee05b4706027794",
      "transactionIndex": "0x4",
      "blockHash": "0x0000000000000000000000000000000000000000000000000000000000000000",
      "blockNumber": "0x27e262e",
      "gasUsed": "0x13a408",
      "effectiveGasPrice": "0x5b8d80",
      "blobGasUsed": "0x167538",
      "from": "0x22befd3a94aada878e7b754a8903db25f42f840f",
      "to": null,
      "contractAddress": "0xdd86cc39e144d07259ded89236c44d5b40c02bda",
      "l1GasPrice": "0x397abe16",
      "l1GasUsed": "0xce41",
      "l1Fee": "0x2a95b6a3a6",
      "l1BaseFeeScalar": "0x44d",
      "l1BlobBaseFee": "0x378cd10",
      "l1BlobBaseFeeScalar": "0xa118b",
      "daFootprintGasScalar": "0x1be"
    },
    {
      "type": "0x2",
      "status": "0x1",
      "cumulativeGasUsed": "0x1ffcf9",
      "logs": [
        {
          "address": "0xfd914aa36aedc1c70656261450b4c169980a05f4",
          "topics": [
            "0x279ecb950173e9b8b40184186c80306195d54c93e0aafb09d9b9415c4274befe",
            "0x00000000000000000000000022befd3a94aada878e7b754a8903db25f42f840f"
          ],
          "data": "0x000000000000000000000000000000000000000000000000000000000000004000000000000000000000000000000000000000000000000000000000000000800000000000000000000000000000000000000000000000000000000000000012546573742047726f636572792053746f726500000000000000000000000000000000000000000000000000000000000000000000000000000000000000000014516d56656e646f724d6574616461746148617368000000000000000000000000",
          "blockHash": "0x0000000000000000000000000000000000000000000000000000000000000000",
          "blockNumber": "0x27e262e",
          "blockTimestamp": "0x6a0fab3c",
          "transactionHash": "0x5582e580b3e55bce2aa976199c495591e7a59429ebef85a546dd2f795e96aee7",
          "transactionIndex": "0x5",
          "logIndex": "0x3",
          "removed": false
        }
      ],
      "logsBloom": "0x00000000000000000000000000000000000000000000000000000000000000000000000000000000000000000000000000000000000000000000000000000000000000000000000000000000000000000000000000000000000000000000000000000000000000000000000000000000080000000000000000000000000000000400000000000000000000000000000000000000000000000000000000000080000000000000000000000400000000000008000000000000000800000000000000204000000000000000000000020000000000000000000000000000000000000000000000000000000000000000000000000000000000000000000000000000",
      "transactionHash": "0x5582e580b3e55bce2aa976199c495591e7a59429ebef85a546dd2f795e96aee7",
      "transactionIndex": "0x5",
      "blockHash": "0x0000000000000000000000000000000000000000000000000000000000000000",
      "blockNumber": "0x27e262e",
      "gasUsed": "0x27d3a",
      "effectiveGasPrice": "0x5b8d80",
      "blobGasUsed": "0xf5a6",
      "from": "0x22befd3a94aada878e7b754a8903db25f42f840f",
      "to": "0xfd914aa36aedc1c70656261450b4c169980a05f4",
      "contractAddress": null,
      "l1GasPrice": "0x397abe16",
      "l1GasUsed": "0x8d7",
      "l1Fee": "0x2a95b6a3a6",
      "l1BaseFeeScalar": "0x44d",
      "l1BlobBaseFee": "0x378cd10",
      "l1BlobBaseFeeScalar": "0xa118b",
      "daFootprintGasScalar": "0x1be"
    },
    {
      "type": "0x2",
      "status": "0x1",
      "cumulativeGasUsed": "0x2217ad",
      "logs": [
        {
          "address": "0x1e0e0c4dbbef0c6d60ddaba643d5844589cc952a",
          "topics": [
            "0xb757e9f5ff5e01871d8fe863b162c81bb86151dbe3891808a315e24f5b25f4b4",
            "0x0000000000000000000000000000000000000000000000000000000000000000"
          ],
          "data": "0x00000000000000000000000000000000000000000000000000000000000000200000000000000000000000000000000000000000000000000000000000000016516d526563697069656e7450726f66696c654861736800000000000000000000",
          "blockHash": "0x0000000000000000000000000000000000000000000000000000000000000000",
          "blockNumber": "0x27e262e",
          "blockTimestamp": "0x6a0fab3c",
          "transactionHash": "0x025ed9e0ccbce9323c25770f8f33000f069e9e01d8bd374216ea1f32aa40c2c5",
          "transactionIndex": "0x6",
          "logIndex": "0x4",
          "removed": false
        }
      ],
      "logsBloom": "0x00000000000000000000000000000000000000000000000000000000000000000000000000000000000000000000000000000000000000000000000000000000000000000000000000000000004000000000000000000000000000000000000000000000020000000000000000000900000000000000000000000000000000000000000000000000000000000000000000000000000000000000000000008000000000000000000000000000000000000000400000000000000000000000000000000000000000000000000000000000000000000000000000000000000020000000000400000000000000000000000000000000000200000000000000000000",
      "transactionHash": "0x025ed9e0ccbce9323c25770f8f33000f069e9e01d8bd374216ea1f32aa40c2c5",
      "transactionIndex": "0x6",
      "blockHash": "0x0000000000000000000000000000000000000000000000000000000000000000",
      "blockNumber": "0x27e262e",
      "gasUsed": "0x21ab4",
      "effectiveGasPrice": "0x5b8d80",
      "blobGasUsed": "0xae38",
      "from": "0x22befd3a94aada878e7b754a8903db25f42f840f",
      "to": "0x1e0e0c4dbbef0c6d60ddaba643d5844589cc952a",
      "contractAddress": null,
      "l1GasPrice": "0x397abe16",
      "l1GasUsed": "0x640",
      "l1Fee": "0x2a95b6a3a6",
      "l1BaseFeeScalar": "0x44d",
      "l1BlobBaseFee": "0x378cd10",
      "l1BlobBaseFeeScalar": "0xa118b",
      "daFootprintGasScalar": "0x1be"
    },
    {
      "type": "0x2",
      "status": "0x1",
      "cumulativeGasUsed": "0x24f1cf",
      "logs": [
        {
          "address": "0xcac16f5a3fbc3c4b1306b05302488eaea59250e0",
          "topics": [
            "0xe2669f3f3e189bb6d4acd288675fbf8ea44a3d38cd4d5d05301446b4d0eb77c9",
            "0x0000000000000000000000000000000000000000000000000000000000000000",
            "0x0000000000000000000000000000000000000000000000000000000000000000",
            "0x00000000000000000000000022befd3a94aada878e7b754a8903db25f42f840f"
          ],
          "data": "0x0000000000000000000000000000000000000000000000000000000002625a0000000000000000000000000000000000000000000000000000000000000000400000000000000000000000000000000000000000000000000000000000000015516d4e6565644465736372697074696f6e486173680000000000000000000000",
          "blockHash": "0x0000000000000000000000000000000000000000000000000000000000000000",
          "blockNumber": "0x27e262e",
          "blockTimestamp": "0x6a0fab3c",
          "transactionHash": "0x5ef6609c65ae0af75cc66c7243cc5b9a7215c0cddfadccb7827df2fabd80f1a9",
          "transactionIndex": "0x7",
          "logIndex": "0x5",
          "removed": false
        }
      ],
      "logsBloom": "0x00000000000000000000000000000004000000000000000000000000000000000002000000000000000000000000000000000000000000000000000000000000000000000000000000000000040000000000000000000000000000000000000000000000020000000000000000000800000000000400000000200000000000000000000000000000000000000000000000000000000000000000000000000000000000000000000000000000000000000008000000000000000800000000000000000000000000000000000000020000000000000000000000020000000020000000000000000000000000000000000000000000000000000000000000000000",
      "transactionHash": "0x5ef6609c65ae0af75cc66c7243cc5b9a7215c0cddfadccb7827df2fabd80f1a9",
      "transactionIndex": "0x7",
      "blockHash": "0x0000000000000000000000000000000000000000000000000000000000000000",
      "blockNumber": "0x27e262e",
      "gasUsed": "0x2da22",
      "effectiveGasPrice": "0x5b8d80",
      "blobGasUsed": "0xcbd6",
      "from": "0x22befd3a94aada878e7b754a8903db25f42f840f",
      "to": "0xcac16f5a3fbc3c4b1306b05302488eaea59250e0",
      "contractAddress": null,
      "l1GasPrice": "0x397abe16",
      "l1GasUsed": "0x752",
      "l1Fee": "0x2a95b6a3a6",
      "l1BaseFeeScalar": "0x44d",
      "l1BlobBaseFee": "0x378cd10",
      "l1BlobBaseFeeScalar": "0xa118b",
      "daFootprintGasScalar": "0x1be"
    }
  ],
  "libraries": [],
  "pending": [],
  "returns": {},
  "timestamp": 1779411771933,
  "chain": 84532,
  "commit": null
}